:020000040800F2
:1000000000000220E927000895270008972700082C
:10001000992700089B2700089D2700080000000082
:100020000000000000000000000000009F27000802
:10003000A127000800000000A3270008A52700084A
:10004000392800083928000839280008392800080C
:1000500039280008392800083928000839280008FC
:1000600039280008392800083928000839280008EC
:100070003928000839280008AD2700083928000869
:10008000BD27000839280008392800083928000849
:1000900039280008392800083928000839280008BC
:1000A00039280008392800083928000839280008AC
:1000B000392800083928000839280008392800089C
:1000C000392800083928000839280008392800088C
:1000D000392800083928000839280008392800087C
:1000E000392800083928000839280008392800086C
:1000F000392800083928000839280008392800085C
:10010000392800083928000839280008392800084B
:10011000392800083928000839280008392800083B
:10012000392800083928000839280008392800082B
:10013000392800083928000839280008392800081B
:10014000392800083928000839280008392800080B
:1001500039280008392800083928000839280008FB
:1001600039280008392800083928000839280008EB
:100170003928000839280008392800080000000044
:080180003928000839280008A5
:1001880010B5054C237833B9044B13B10448AFF3C9
:1001980000800123237010BD7404002000000000BB
:1001A8004451000808B5034B1BB103490348AFF39A
:1001B800008008BD000000007804002044510008B9
:1001C80081F0004102E000BF83F0004330B54FEA00
:1001D80041044FEA430594EA050F08BF90EA020F6D
:1001E8001FBF54EA000C55EA020C7FEA645C7FEA00
:1001F800655C00F0E2804FEA5454D4EB5555B8BF23
:100208006D420CDD2C4480EA020281EA030382EA93
:10021800000083EA010180EA020281EA0303362D25
:1002280088BF30BD11F0004F4FEA01314FF4801CF8
:100238004CEA113102D0404261EB410113F0004F0A
:100248004FEA03334CEA133302D0524263EB4303C1
:1002580094EA050F00F0A780A4F10104D5F1200E5F
:100268000DDB02FA0EFC22FA05F2801841F10001BA
:1002780003FA0EF2801843FA05F359410EE0A5F18E
:1002880020050EF1200E012A03FA0EFC28BF4CF0BF
:10029800020C43FA05F3C01851EBE37101F0004575
:1002A80007D54FF0000EDCF1000C7EEB00006EEB82
:1002B8000101B1F5801F1BD3B1F5001F0CD349080C
:1002C8005FEA30004FEA3C0C04F101044FEA445263
:1002D80012F5800F80F09A80BCF1004F08BF5FEAEA
:1002E800500C50F1000041EB045141EA050130BDCA
:1002F8005FEA4C0C404141EB010111F4801FA4F16D
:100308000104E9D191F0000F04BF01460020B1FAC1
:1003180081F308BF2033A3F10B03B3F120020CDAF9
:100328000C3208DD02F1140CC2F10C0201FA0CF0D7
:1003380021FA02F10CE002F11402D8BFC2F1200C3C
:1003480001FA02F120FA0CFCDCBF41EA0C019040F2
:10035800E41AA2BF01EB0451294330BD6FEA04043B
:100368001F3C1CDA0C340EDC04F11404C4F1200226
:1003780020FA04F001FA02F340EA030021FA04F338
:1003880045EA030130BDC4F10C04C4F1200220FA8F
:1003980002F001FA04F340EA0300294630BD21FACD
:1003A80004F0294630BD94F0000F83F4801306BF93
:1003B80081F480110134013D4EE77FEA645C18BF87
:1003C8007FEA655C29D094EA050F08BF90EA020F1E
:1003D80005D054EA000C04BF1946104630BD91EA16
:1003E800030F1EBF0021002030BD5FEA545C05D119
:1003F8004000494128BF41F0004130BD14F5800458
:100408003CBF01F5801130BD01F0004545F0FE41CB
:1004180041F470014FF0000030BD7FEA645C1ABF00
:10042800194610467FEA655C1CBF0B46024650EA37
:10043800013406BF52EA033591EA030F41F4002163
:1004480030BD00BF90F0000F04BF0021704730B5E9
:100458004FF4806404F132044FF000054FF00001BE
:1004680050E700BF90F0000F04BF0021704730B57F
:100478004FF4806404F1320410F0004548BF404254
:100488004FF000013EE700BF42004FEAE2014FEAA9
:1004980031014FEA02701FBF12F07F4393F07F4F84
:1004A80081F06051704732F07F4208BF704793F087
:1004B8007F4F04BF41F40021704730B54FF460749A
:1004C80001F0004521F000411CE700BF50EA01029D
:1004D80008BF704730B54FF000050AE050EA010246
:1004E80008BF704730B511F0004502D5404261EBB6
:1004F80041014FF4806404F132045FEA915C3FF4F7
:10050800D8AE4FF003025FEADC0C18BF03325FEA93
:10051800DC0C18BF033202EBDC02C2F1200300FA44
:1005280003FC20FA02F001FA03FE40EA0E0021FA69
:1005380002F11444BDE600BF4FEA4102B2F1E043C4
:1005480024BFB3F5001CDCF1FE5C0DD901F0004CB2
:100558004FEAC0024CEA5070B2F1004F40EB830002
:1005680008BF20F00100704711F0804F21D113F12E
:100578003872BCBF01F00040704741F480114FEA67
:100588005252C2F11802C2F1200C10FA0CF320FAF0
:1005980002F018BF40F001004FEAC1234FEAD3230D
:1005A80003FA0CFC40EA0C0023FA02F34FEA430377
:1005B800CCE77FEA625307D150EA01331EBF4FF000
:1005C800FE4040F44000704701F0004040F0FE401B
:1005D80040F40000704700BF53B94AB9002908BF6A
:1005E80000281CBF4FF0FF314FF0FF3000F072B908
:1005F800ADF1080C6DE904CE00F006F8DDF804E072
:10060800DDE9022304B070472DE9F047089E04464F
:100618008846002B4BD18A42154667D9B2FA82F236
:100628004AB1C2F1200701FA02F320FA07F7954010
:1006380047EA030894404FEA154E230CB8FBFEF72F
:100648001FFA85FC0EFB178843EA084307FB0CF1E9
:10065800994209D9EB1807F1FF3080F01B819942C4
:1006680040F21881023F2B445B1AA4B2B3FBFEF0A0
:100678000EFB103344EA034400FB0CFCA44509D9E3
:100688002C1900F1FF3380F00781A44540F2048162
:1006980002382C4440EA0740A4EB0C0400271EB1A2
:1006A800D4400023C6E900433946BDE8F0878B42B1
:1006B80009D9002E00F0EB800027C6E90001384672
:1006C8003946BDE8F087B3FA83F7002F47D18B424C
:1006D80002D3824200F2FA80841A61EB03030120FC
:1006E8009846002EE0D0C6E90048DDE702B9FFDEF3
:1006F800B2FA82F2002A40F08F80491B4FEA154E69
:100708001FFA85F80127B1FBFEFC230C0EFB1C1118
:1007180043EA014308FB0CF1994207D9EB180CF1A5
:10072800FF3002D2994200F2CD808446591AA3B212
:10073800B1FBFEF00EFB101443EA044408FB00F87A
:10074800A04507D92C1900F1FF3302D2A04500F2C9
:10075800B6801846A4EB080440EA0C409FE7C7F1AE
:10076800200CBB4022FA0CFE4EEA030E01FA07F4F5
:1007780020FA0CF521FA0CF34FEA1E482543B3FB87
:10078800F8F92C0C08FB19331FFA8EFA44EA0343D4
:1007980009FB0AF49C4202FA07F200FA07F10BD9A6
:1007A8001EEB030309F1FF3080F087809C4240F282
:1007B8008480A9F1020973441B1BADB2B3FBF8F0A6
:1007C80008FB103345EA034400FB0AFAA24508D99E
:1007D8001EEB040400F1FF336BD2A24569D902383D
:1007E800744440EA0940A0FB0289A4EB0A044C4582
:1007F800C2464B4654D351D0002E69D0B1EB0A05FE
:1008080064EB030404FA0CFCFD40FC404CEA0505CB
:10081800C6E90054002747E7C2F1200320FA03F78E
:10082800954001FA02F021FA03F34FEA154E3843D6
:10083800010CB3FBFEF71FFA85F80EFB173341EAEC
:10084800034107FB08F38B4204FA02F407D969183D
:1008580007F1FF3C2FD28B422DD9023F2944CB1AF6
:1008680081B2B3FBFEF00EFB103341EA034100FBFB
:1008780008F38B4207D9691800F1FF3C17D28B4265
:1008880015D902382944C91A40EA07473BE73746D1
:10089800304609E70746E7E61846FBE64145ABD28E
:1008A800B8EB020A69EB0E0201381346A4E760466A
:1008B800E9E7184695E76746D1E781467CE70238BD
:1008C8002C4447E7ACF1020C2B442FE7384608E7E5
:1008D8003746E9E6704700BF10B504460E4B187856
:1008E8004FF47A73B3FBF0F30C4A1068B0FBF3F0E3
:1008F80000F096F868B90F2C01D901200AE000220F
:1009080021464FF0FF3000F049F8034B5C600020AF
:1009180000E0012010BD00BF0000002008000020FA
:1009280008B50B4B1A6842F400721A601A6842F450
:1009380080621A601A6842F480721A60032000F01C
:100948001BF80020FFF7C8FF01F01EFE002008BDBD
:10095800003C0240034A1168034B1B780B441360A8
:10096800704700BF9804002000000020014B186861
:10097800704700BF98040020074AD36823F4E06357
:100988001B041B0C000200F4E060184340F0BF6039
:1009980040F40030D060704700ED00E030B4174BF1
:1009A800DB68C3F30223C3F10704042C28BF042423
:1009B8001D1D062D18D9033B4FF0FF3505FA04F429
:1009C80021EA0401994005FA03F322EA03031943D3
:1009D80000280BDB0901C9B200F1604000F5614055
:1009E80080F8001330BC70470023E5E700F00F00E3
:1009F8000901C9B2024B1954F4E700BF00ED00E049
:100A080014ED00E0002807DB00F01F024009012375
:100A18009340024A42F82030704700BF00E100E0EE
:100A28000138B0F1807F0AD2064B5860064AF0219F
:100A380082F823100020986007221A60704701206E
:100A4800704700BF10E000E000ED00E058B110B5BD
:100A5800044643791BB101236371002010BD037163
:100A680001F0AEFDF7E70120704730B405682C6847
:100A780024F480242C60046863608368402B05D0CC
:100A8800036899600368DA6030BC704703689A604D
:100A98000368D960F8E700000268D3B2103B0B493D
:100AA800A1FB03131B090A49C95CC165032B06D8BE
:100AB80022F47F7222F003028265806D704722F46F
:100AC8007F7222F0030204328265F6E7ABAAAAAA73
:100AD8005C510008836A826992B9012B0AD01BB164
:100AE800022B01D000207047C36A13F0807F2CD1FD
:100AF80000207047C36AB3F1C07F28D00020704738
:100B0800B2F5005F05D0022B29D9032B15D00020A0
:100B18007047032B03D8DFE803F01C041C0A0020ED
:100B28007047C36A13F0807F15D100207047C36AED
:100B3800B3F1C07F11D000207047C36A13F0807FE3
:100B480001D0012070470020704701207047012024
:100B5800704701207047012070470120704701202D
:100B68007047000070B50446FFF700FF002C5BD00B
:100B78000546002384F83430022384F8353022688F
:100B8800136823F00103136023681A6812F0010F39
:100B98000AD0FFF7EBFE401B0528F5D92023636533
:100BA800032084F8350070BD1A6820481040616839
:100BB800A2680A43E1680A4321690A4361690A4352
:100BC800A1690A43E1690A43216A0A430243616A47
:100BD80004291ED01A602668756925F00705636A1E
:100BE8001D43042B07D1A36A1D43E36A1BB12046AA
:100BF800FFF770FF90B975612046FFF74DFFE26D72
:100C08003F239340836000206065012384F83530DA
:100C1800C9E7E16A206B01430A43DBE740236365C8
:100C2800012084F83500BEE70120BCE73F8010F0C2
:100C380038B5856D90F83440012C2CD0012480F80B
:100C4800344090F83540E4B2012C04D0002380F8F9
:100C58003430022038BD0446022084F835000020D4
:100C680060652046FFF701FFE26D3F239340AB60CC
:100C78002268136843F016031360236C23B12268BB
:100C8800136843F0080313602268136843F00103F4
:100C980013600020DEE70220DCE70000F0B583B037
:100CA800044600230193724B1D68724BA3FB053564
:100CB800AD0A876D3E68C26D08239340334210D059
:100CC80003681A6812F0040F0BD01A6822F00402A5
:100CD8001A60C26D08239340BB60436D43F0010363
:100CE8004365E26D01239340334209D0226852697B
:100CF80012F0800F04D0BB60636D43F0020363659C
:100D0800E26D04239340334209D02268126812F03E
:100D1800020F04D0BB60636D43F004036365E26DAA
:100D280010239340334224D02268126812F0080F2F
:100D38001FD0BB6023681A6812F4802F0DD01B687F
:100D480013F4002F04D1236C9BB12046984710E080
:100D5800A36C73B1204698470BE01A6812F4807FA1
:100D680003D11A6822F008021A60236C0BB12046DE
:100D78009847E26D20239340334255D02268126889
:100D880012F0100F50D0BB6094F83530DBB2052B51
:100D98000ED023681A6812F4802F33D01B6813F41E
:100DA800002F2AD1636C002B3ED0204698473BE0A9
:100DB8002268136823F0160313602268536923F02E
:100DC80080035361236CA3B12268136823F00803DE
:100DD8001360E26D3F239340BB60002384F83430F6
:100DE800012384F83530236D002B3FD020469847E7
:100DF8003CE0A36C002BE7D1EBE7E36BA3B1204603
:100E0800984711E01A6812F4807F09D11A6822F015
:100E180010021A60002384F83430012384F8353036
:100E2800E36B0BB120469847636DFBB1636D13F01C
:100E3800010F17D0052384F835302268136823F092
:100E480001031360019B01330193AB4204D823686B
:100E58001B6813F0010FF5D1002384F83430012307
:100E680084F83530E36C0BB12046984703B0F0BDE9
:100E780008000020B5814E1B00230F2B00F2D780FD
:100E8800F0B583B039E0072200E00022AA403A43D7
:100E98000234674D45F82420664A1468F24302EA92
:100EA80004054F6817F4803F01D046EA0405614CF9
:100EB8002560646802EA04054F6817F4003F01D012
:100EC80046EA04055B4C6560A46802EA04054F68BD
:100ED80017F4801F01D046EA0405564CA560E46863
:100EE80022404D6815F4001F01D046EA0402514C17
:100EF800E26001330F2B00F2988001229A400C68BF
:100F080004EA0206B242F4D14C68651E012D03D9E9
:100F1800112C01D0122C12D185685F000324BC402B
:100F280025EA0405CC68BC402C438460456825EA62
:100F380002054C68C4F300129A402A434260C46810
:100F48005F000322BA40D24314408D68BD40254358
:100F5800C5604C68022C01D0122C13D1DD0808356D
:100F680050F825E003F007044FEA840C0F2404FA34
:100F78000CF42EEA040E0C6904FA0CF444EA0E048C
:100F880040F82540046822404C6804F00304BC4043
:100F9800224302604A6812F0805FAAD000220192C0
:100FA800254A546C44F480445464526C02F48042E0
:100FB8000192019A9C08A51C1D4A52F8257003F05D
:100FC800030295000F22AA4027EA02071B4A904213
:100FD8003FF45BAF02F5806290421AD002F580625E
:100FE800904218D002F58062904216D002F58062D5
:100FF800904214D002F58062904212D002F58062CD
:10100800904210D002F5806290423FF43CAF082233
:101018003CE701223AE7022238E7032236E70422B6
:1010280034E7052232E7062230E703B0F0BD704707
:1010380000380140003C01400038024000000240F6
:1010480012B909048161704781617047002800F076
:10105800BF8070B5044690F84130002B51D0022271
:1010680084F841202168CB6923F47B6323F00F03C4
:10107800CB6123681A626369934263D0E368002BEB
:1010880046D11025A368202B00D86D00012000F060
:10109800BDFF2369B3F5007F3CD0B0FBF5F000EB52
:1010A800800043006269B3FBF2F30533494AA2FBAF
:1010B8000323DB0803F001029B1A5B081202991E46
:1010C800FD2941D821690A43216813430B6221682D
:1010D800CB6923F47B6323F00F036268A0680243A3
:1010E800E0680243A0690243134343F40063CB6101
:1010F800236A012B2ED000206064012384F841303C
:1011080070BD80F84030344B436301F071FAA6E7B4
:101118002025B7E7E36853B1AD00B0FBF5F000EB6D
:10112800800043006269B3FBF2F30533BEE7ED00CC
:10113800B0FBF5F000EB800043006269B3FBF2F30B
:101148000533B3E70022BAE7636C43F01003636426
:101158000120D5E7214B63632268214B9A421FD0B7
:101168004FF04022D36923F47B6323F00F03D3614C
:1011780022681B4B9A4215D04FF0402302221A6274
:101188002268174B9A4210D04FF04021CA6992B298
:101198006368B3F5007F0AD0C3B94FF4807608E0DE
:1011A800104ADFE7A3F58063E8E70E49EEE74FF45E
:1011B8008076A068E568238B2B439BB203439BB2E0
:1011C8003343134343F40063CB6194E70026F0E70D
:1011D80001207047CDCCCCCC93140008C51600086C
:1011E800003800400034004000295DD010B5002AC6
:1011F8005DD090F84030DBB2012B5BD0012380F842
:10120800403090F84130DBB2012B10D1032380F835
:1012180041300023436441620368DB6903F007033C
:10122800032B09D0052B07D00285428508E000234F
:1012380080F8403002233BE0520092B2028542859A
:101248000446836B1C4A1A64836B1C4ADA63836BFB
:101258001B4ADA640268038D0C32416A806BFFF71F
:10126800E7FC0346A8B92268D16911F4806F03D15D
:10127800D16941F48061D1612268516811F0020F8F
:1012880003D1516841F002015160002284F84020E6
:101298000EE0636C43F008036364012384F8413073
:1012A800002284F8402003E00123184670470123F8
:1012B800184610BD0223FBE7C913000809140008EB
:1012C8006315000800296CD010B582B0002A6BD0D5
:1012D80090F84030DBB2012B6AD0012380F840300F
:1012E80090F84130DBB2012B10D1042380F8413053
:1012F80000234364C1620368DB6903F00703032B1F
:1013080009D0052B07D00286428608E0002380F822
:101318004030022349E0520092B202864286C36BF3
:10132800244A1A64C36B244ADA63C36B234ADA6417
:101338000168CB6903F44073B3F5407F1ED00446BF
:10134800038EC26A0C31C06BFFF772FC0346E8B922
:101358002268D16911F4806F03D1D16941F48061A9
:10136800D1612268516811F0010F03D1516841F031
:1013780001015160002284F8402016E00023019307
:10138800CB6801938B680193019BD8E7636C43F0AA
:1013980008036364012384F84130002284F8402064
:1013A80003E00123184670470123184602B010BD18
:1013B8000223FAE72D1400086D14000863150008CD
:1013C80008B5806B00F0BAFF08BD08B5426A03682B
:1013D8001288DA60436A02334362438D013B9BB251
:1013E8004385438D9BB203B108BD0268536823F05F
:1013F800A0035360012380F8413000F0A5FFF3E714
:1014080008B5836BC2694AB919684A6822F00202B2
:101418004A6000225A85012283F84120184600F0CC
:1014280093FF08BD08B5806B00F094FF08BD08B5B0
:101438000368DA68C36A1A80C36A0233C362438ED8
:10144800013B9BB24386438E9BB203B108BD026841
:10145800536823F060035360012380F8413000F0A3
:101468007FFFF3E708B5836BC2694AB919684A6810
:1014780022F001024A6000225A86012283F84120A4
:10148800184600F06DFF08BD704710B584B00446DB
:1014980002689368039390F84130DBB2042B06D0BE
:1014A80094F84130DBB2032B2CD004B010BD039B61
:1014B80013F0010F03D0536813F0400F1FD1039BA3
:1014C80013F0400FECD023685A6812F0200FE7D0D1
:1014D8005A6822F060025A60002301932368DA6890
:1014E80001929B680193019B012384F84130636C4E
:1014F80043F0020363642046FFF7C6FFD0E7FFF717
:1015080096FFDCE7039B13F0020F04D023685B68A7
:1015180013F0800F1DD1039B13F0080FC5D023686B
:101528005A6812F0200FC0D05A6822F0A0025A6000
:101538000023029323689B680293029B012384F88B
:101548004130636C43F0040363642046FFF79CFF5B
:10155800ABE72046FFF739FFDDE708B5806B026887
:10156800536823F003035360002343854386012314
:1015780080F84130436C43F008034364FFF784FF6D
:1015880008BD704708B5436A9A1C426202681B8806
:10159800D360438D013B9BB24385438D9BB23BB9DE
:1015A8000268536823F0A0035360438E9BB203B1D3
:1015B80008BD012380F84130FFF7E3FFF8E700009A
:1015C80008B50268144B9A421BD04FF04023DA68E2
:1015D800C36A991CC1621A80438E013B9BB2438641
:1015E800438E9BB263B902680B4B9A420CD04FF002
:1015F8004022536823F060035360438D9BB22BB1A4
:1016080008BDA3F58063E2E7044AF2E7012380F806
:101618004130FFF7B6FFF3E70038004000340040E0
:1016280008B5436A9A1C42621A880168124B9942AB
:1016380017D04FF04023DA60438D013B9BB24385BE
:10164800438D9BB263B902680B4B9A420CD04FF0A2
:101658004022536823F0A0035360438E9BB22BB102
:1016680008BDA3F58063E6E7044AF2E7012380F8A2
:101678004130FFF786FFF3E70038004000340040B0
:1016880008B50368DA68C36A991CC1621A80438E78
:10169800013B9BB24386438E9BB23BB902685368B9
:1016A80023F060035360438D9BB203B108BD01234F
:1016B80080F84130FFF765FFF8E7000010B586B005
:1016C800044603689A680592704A93426FD04FF0B7
:1016D8004022916804915B6803935368029363689E
:1016E800B3F5007F01D0002B70D1059B13F0020FDA
:1016F80003D0039B13F0800F5CD1049B13F0010F00
:1017080003D0029B13F0400F58D1049B13F0400FF5
:1017180024D0029B13F0200F20D022685B4B9A4202
:1017280050D04FF04022536823F060035360226882
:10173800536823F0A0035360002300932368DA68FA
:1017480000929B680093009B012384F84130636CEE
:1017580043F0020363642046FFF796FE059B13F0EF
:10176800080F22D0039B13F0200F1ED02268536865
:1017780023F0A00353602268444B9A4224D04FF0D0
:101788004022536823F060035360002301932368C9
:101798009B680193019B012384F84130636C43F0FB
:1017A800040363642046FFF76FFE06B010BDA2F580
:1017B80080628EE72046FFF7E5FE9EE72046FFF7AA
:1017C800FFFEA2E7324AAEE7314ADAE7049B13F09C
:1017D800020F03D0029B13F0800F4AD1059B13F030
:1017E800010F03D0039B13F0400F46D1059B13F064
:1017F800400F1CD0039B13F0200F18D022685368A9
:1018080023F0600353602268204B9A4239D04FF08E
:101818004022536823F0A0035360012384F8413029
:10182800636C43F0020363642046FFF72DFE049BBC
:1018380013F0080FB9D0029B13F0200FB5D022681F
:10184800124B9A421FD04FF04022536823F0A00356
:1018580053602268536823F060035360012384F8BF
:101868004130636C43F0040363642046FFF70CFEC9
:101878009BE72046FFF7D4FEB0E72046FFF700FFBE
:10188800B4E7034AC5E7024ADFE700BF0038004073
:1018980000340040002800F0E48170B582B00446AE
:1018A800036813F0010F3BD0A74B9B6803F00C03B0
:1018B800042B2CD0A44B9B6803F00C03082B21D0DD
:1018C8006368B3F5803F4FD0B3F5A02F52D09E4B3D
:1018D8001A6822F480321A601A6822F480221A6088
:1018E8006368002B50D0FFF741F80546964B1B68FC
:1018F80013F4003F14D1FFF739F8401B6428F5D9D9
:101908000320B3E1904B5B6813F4800FD8D08E4B63
:101918001B6813F4003F03D06368002B00F0A38119
:10192800236813F0020F55D0874B9B6813F00C0FF8
:101938003ED0854B9B6803F00C03082B33D0E3683B
:10194800002B68D0814B01221A60FFF70FF805467B
:101958007D4B1B6813F0020F54D1FFF707F8401BAB
:101968000228F5D9032081E1774A136843F48033CC
:101978001360B5E7744B1A6842F480221A601A683B
:1019880042F480321A60ABE7FEF7F0FF05466E4B73
:101998001B6813F4003FC3D0FEF7E8FF401B642820
:1019A800F5D9032062E1684B5B6813F4800FC6D158
:1019B800654B1B6813F0020F04D0E368012B01D0BC
:1019C800012053E1604A136823F0F803216943EAD0
:1019D800C1031360236813F0080F40D0636963B331
:1019E8005B4B01221A60FEF7C1FF0546564B5B6F41
:1019F80013F0020F33D1FEF7B9FF401B0228F5D9C7
:101A0800032033E1504A136823F0F803216943EABD
:101A1800C1031360DEE74D4B00221A60FEF7A6FFF4
:101A28000546494B1B6813F0020FD3D0FEF79EFF03
:101A3800401B0228F5D9032018E1454B00221A6003
:101A4800FEF794FF0546404B5B6F13F0020F06D07C
:101A5800FEF78CFF401B0228F5D9032006E1236816
:101A680013F0040F79D0384B1B6C13F0805F33D11F
:101A780000230193344B1A6C42F080521A641B6C99
:101A880003F080530193019B0125324B1B6813F42B
:101A9800807F23D0A368012B34D0052B38D02A4B64
:101AA8001A6F22F001021A671A6F22F004021A67ED
:101AB800A368002B36D0FEF759FF0646224B1B6F52
:101AC80013F0020F48D1FEF751FF801B41F2883313
:101AD8009842F3D90320C9E00025D6E71D4A1368C8
:101AE80043F480731360FEF741FF0646194B1B68E9
:101AF80013F4807FCED1FEF739FF801B0228F5D979
:101B08000320B3E0104A136F43F001031367CFE7D4
:101B18000D4B1A6F42F004021A671A6F42F0010265
:101B28001A67C5E7FEF722FF0646074B1B6F13F03F
:101B3800020F11D0FEF71AFF801B41F2883398423A
:101B4800F3D9032092E000BF00380240000047426A
:101B5800800E474200700040EDB9A369002B00F0E9
:101B68008480454A926802F00C02082A51D0022B60
:101B780017D0424B00221A60FEF7F8FE04463E4B8F
:101B88001B6813F0007F42D0FEF7F0FE001B02280E
:101B9800F5D903206AE0384A136C23F080531364A4
:101BA800DBE7364B00221A60FEF7E0FE0546324BB3
:101BB8001B6813F0007F06D0FEF7D8FE401B0228F2
:101BC800F5D9032052E0E369226A1343626A43EAC3
:101BD8008213A26A5208013A43EA0243E26A43EADC
:101BE8000263254A5360254B01221A60FEF7BEFEA8
:101BF8000446214B1B6813F0007F06D1FEF7B6FEA2
:101C0800001B0228F5D9032030E000202EE0002038
:101C18002CE0012B2CD0184B9B6803F48001E2695F
:101C2800914201D0012021E003F03F02216A8A425B
:101C380001D001201AE0616A47F6C0721A408A4250
:101C480001D0012012E003F44032A16A8A4201D097
:101C580001200BE003F07063E26A93420AD001208E
:101C680004E001207047012000E0002002B070BDB0
:101C78000120FBE70020F9E70038024060004742F6
:101C8800324B9B6803F00C03042B5CD0082B01D06B
:101C98002F4870472DE9F04B2C4B5A6802F03F0251
:101CA8005B6813F4800F2BD0284B5B68C3F3881351
:101CB8001E4600275C010025E41A65EB0705A9010B
:101CC80041EA9461A001001B61EB0501CB0043EAE6
:101CD8005073C400A01943EB07014B0243EAD053E9
:101CE8004402204619460023FEF776FC174B5B6832
:101CF800C3F3014301335B00B0FBF3F0BDE8F08BA5
:101D0800124B5B68C3F388131E4600275C0100254D
:101D1800E41A65EB0705A90141EA9461A001001BDB
:101D280061EB0501CB0043EA5073C400A01943EBF3
:101D380007018B0243EA9053840220461946002388
:101D4800FEF74AFCD2E70348704700BF003802405C
:101D58000024F40000127A00002800F09E8070B57C
:101D68000446504B1B6803F00F038B4209D2CBB2D9
:101D78004C4A1370136803F00F038B4201D0012003
:101D880070BD236813F0020F17D013F0040F04D0AE
:101D9800454A936843F4E0539360236813F0080FAF
:101DA80004D0414A936843F4604393603E4A936881
:101DB80023F0F003A068034393600D46236813F0F3
:101DC800010F32D06368012B21D09A1E012A25D930
:101DD800354A126812F0020F61D033498A6822F03E
:101DE800030213438B60FEF7C1FD06462E4B9B682A
:101DF80003F00C036268B3EB820F16D0FEF7B6FD52
:101E0800801B41F288339842F0D90320B8E7264A6C
:101E1800126812F4003FE0D10120B1E7224A1268AB
:101E280012F0007FD9D10120AAE71E4B1B6803F0EE
:101E38000F03AB4209D9EAB21A4B1A701B6803F0B8
:101E48000F03AB4201D001209AE7236813F0040F77
:101E580006D0154A936823F4E053E1680B43936076
:101E6800236813F0080F07D00F4A936823F46043E0
:101E7800216943EAC1039360FFF702FF0A4B9B689D
:101E8800C3F30313094AD35CD840094B1860094BC4
:101E98001868FEF721FD002072E701207047012035
:101EA8006EE700BF003C0240003802406451000861
:101EB800080000200400002030B583B00446036801
:101EC80013F0050F06D1236813F0020F2ED100205E
:101ED80003B030BD494B00221A60FEF747FD0546A6
:101EE800474B1B6813F0006F06D0FEF73FFD401B01
:101EF8000228F5D90320EBE76268A3681B0743EAC9
:101F080082133F4AC2F884303C4B01221A60FEF724
:101F18002DFD05463A4B1B6813F0006FD3D1FEF731
:101F280025FD401B0228F5D90320D1E700230193A2
:101F3800334B1A6C42F080521A641B6C03F08053C6
:101F48000193019B2F4A136843F480731360FEF7D3
:101F58000DFD05462B4B1B6813F4807F06D1FEF759
:101F680005FD401B0228F5D90320B1E7244B1B6F60
:101F780013F4407312D0E26802F440729A420DD012
:101F88001F4B1A6F22F440721F490120086000207D
:101F980008601A671B6F13F0010F13D1E36803F48D
:101FA8004072B2F5407F1ED0154A936823F4F813A7
:101FB800936013490B6FE268C2F30B0213430B677C
:101FC800002085E7FEF7D2FC05460D4B1B6F13F08A
:101FD800020FE3D1FEF7CAFC401B41F28833984256
:101FE800F3D9032074E706498A6822F4F81223F02B
:101FF800704323F4407313438B60DAE76800474269
:102008000038024000700040400E474201282AD1A3
:10201800174B9B6813F4000303D0012B25D11548F7
:102028007047134B5B6813F4800F14D0104B5B6838
:1020380003F03F031048B0FBF3F00D4AD2F88430A8
:10204800C3F3881300FB03F0D2F88430C3F30273A0
:10205800B0FBF3F07047064B5B6803F03F0307489B
:10206800B0FBF3F0E9E7002070470020704700BF9D
:10207800003802400080BB0000127A000024F400FF
:102088002DE9F04F8DB000240794089409940A9420
:102098000B940194634B1A6B42F010021A631A6B8B
:1020A80002F010020192019A02941A6B42F00402A3
:1020B8001A631A6B02F004020292029A03941A6BD2
:1020C80042F080021A631A6B02F080020392039AAC
:1020D80004941A6B42F001021A631A6B02F00102AF
:1020E8000492049A05941A6B42F002021A631A6B5E
:1020F80002F002020592059A06941A6B42F0080251
:102108001A631B6B03F008030693069B22460821FB
:102118004548FEF795FF454E224601213046FEF719
:102128008FFFDFF8109122464FF210014846FEF764
:1021380087FF082307930125089509940A9407A99E
:102148003948FEF799FE0795089509940A9407A956
:102158003046FEF791FE0795DFF8DCA0CDF820A009
:102168000994A6F5006607A93046FEF785FEE02328
:1021780007930227089709944FF00308CDF82880A1
:1021880005230B9307A93046FEF776FE4FF0040BA4
:10219800CDF81CB00894099407A92548FEF76CFEF1
:1021A8004FF210030793089509940A9407A9484623
:1021B800FEF762FE4FF4007307930894099407A989
:1021C8003046FEF759FE4FF4E053079308970994F9
:1021D800CDF828800A230B9307A93046FEF74CFE5A
:1021E800202307930894099407A94846FEF744FE5C
:1021F8004FF410730793122308930995CDF828809C
:10220800CDF82CB007A90A48FEF736FE0797CDF897
:1022180020A0099407A90448FEF72EFE0DB0BDE8DA
:10222800F08F00BF00380240001002400008024052
:1022380000040240000C02400000111010B582B0EA
:10224800002401940D4B1A6B42F400121A631B6BA5
:1022580003F400130193019B224621460E20FEF74A
:102268009DFB0E20FEF7CEFB224621461020FEF7EE
:1022780095FB1020FEF7C6FB02B010BD00380240E7
:1022880008B50A480A4B03604FF480734360102373
:1022980083600323C360002303614BF680324261ED
:1022A8008361C3610362FEF7D1FE08BD8407002085
:1022B8000038004008B50A480A4B03604FF4007222
:1022C8004260002383600321C16002614BF68032C3
:1022D80042618361C3610362FEF7B8FE08BD00BFB7
:1022E800CC070020003C004010B5064C064B23608C
:1022F8002046FEF7ABFB2268936843F00103936026
:1023080010BD00BF9C04002000300240034A13782F
:10231800034921F81300013313707047900400201B
:1023280014080020034A5378034931F81300013395
:10233800537070479004002014080020014B0122BC
:102348009A70704790040020014B02229A707047DF
:1023580090040020014B0122DA707047900400209D
:10236800014B0222DA7070479004002070B598B0D3
:10237800302200210DEB020002F0ACF90024079492
:10238800089409940A940B9403940494059406946D
:102398000194204B1A6C42F080521A641B6C03F0B3
:1023A80080530193019B02941B4B1A6842F48042AC
:1023B8001A601B6803F480430293029B01260C9663
:1023C8004FF480330D93022512954FF48003139335
:1023D800082314934FF4A87315931695072317939E
:1023E8000CA8FFF757FA0F230793089509944FF4A1
:1023F800A0530A934FF480530B93052107A8FFF7C6
:10240800ABFC0396C0230493059503A8FFF754FD7E
:1024180018B070BD003802400070004010B5FEF7DB
:102428007FFAFFF7A3FFFFF72BFEFFF707FFFFF782
:1024380027FFFFF73FFFFFF757FF00F087F840221D
:1024480039493A48FEF7D0FE402239493948FEF763
:1024580039FF40E0384A3949354802F0B7F80024D6
:1024680005E0364B33F81400FFF750FF01340F2C0A
:10247800F7DD334A137852789B1A802B02DD304BF4
:1024880001221A712E4B0022DA7028E02A4A2B49C1
:102498002C4802F09BF8002405E0284B33F8140080
:1024A800FFF734FF01340F2CF7DD254B0022DA70DB
:1024B80019E0FFF737FF1C4B23F81400A21C23F880
:1024C800120004343F2CF4DD1D4B00229A701C4B83
:1024D8009B78022B11D01A4BDB78012BBAD0184B02
:1024E800DB78022BD2D0164B9B78012BEFD1144B03
:1024F8001B79012BE8D10024E4E7114B1B79012B50
:102508000FD00F4B00229A70E5E7FFF70BFF064B41
:1025180023F81400A21C23F8120004347F2CF4DDE5
:10252800EFE74024FAE700BF04050020CC070020AD
:1025380084060020840700201C0A0020640600206E
:1025480090040020040700207047000010B50B4CD1
:102558000023238001236380094A62602381638109
:10256800204601F0B7FE074902230B8010234B8059
:1025780018238B80204601F037FF10BD1C0A00206D
:10258800D6A3707D140A002082B0002100910B4B65
:102598005A6C42F480425A645A6C02F480420092A7
:1025A800009A01911A6C42F080521A641B6C03F075
:1025B80080530193019B02B0704700BF003802406E
:1025C8000268094B9A4200D0704782B000230193F9
:1025D800064B1A6B42F480521A631B6B03F4805348
:1025E8000193019B02B0704700300240003802405E
:1025F800F0B58DB0044600230793089309930A9316
:102608000B930368574A934204D0574A934254D0D5
:102618000DB0F0BD00250195544B1A6C42F4804270
:102628001A641A6C02F480420192019A02951A6B9C
:1026380042F004021A631A6B02F004020292029A30
:1026480003951A6B42F002021A631B6B03F0020334
:102658000393039B082307930227089705260B96E5
:1026680007A94348FEF708FC4FF4A05307930897BF
:1026780009950A950B9607A93E48FEF7FDFB3E48CB
:102688003E4B036045608560C5604FF4806303611D
:102698004FF4006343614FF4005383614FF4807338
:1026A800C36105624562FEF75DFA18B9324BE36310
:1026B8009C63ADE7FFF748FFF8E7002504952B4B2F
:1026C8001A6C42F400421A641A6C02F40042049232
:1026D800049A05951A6B42F001021A631A6B02F00C
:1026E80001020592059A06951A6B42F004021A63D4
:1026F8001B6B03F004030693069B10230793022722
:10270800089706260B9607A91D48FEF7B5FB4FF458
:10271800A4530793089709950A950B9607A9144897
:10272800FEF7AAFB1748184B0360456040238360F7
:10273800C5604FF4806303614FF4006343614FF455
:10274800005383614FF48073C36105624562FEF7ED
:1027580009FA18B90B4BA3639C6359E7FFF7F4FE1A
:10276800F8E700BF00380040003C00400038024055
:102778000008024000040240A404002058600240FF
:102788000000024004060020886002407047FEE70F
:10279800FEE7FEE7FEE770477047704708B5FEF7AB
:1027A800D9F808BD08B50248FEF778FA08BD00BF99
:1027B800A404002008B50248FEF770FA08BD00BF5F
:1027C80004060020054BD3F8882042F47002C3F8B1
:1027D80088204FF000629A60704700BF00ED00E06B
:1027E800DFF834D0002103E00C4B5B584350043130
:1027F8000B480C4B42189A42F6D30B4A02E00023CE
:1028080042F8043B094B9A42F9D3FFF7DBFF01F08A
:102818003DFFFFF703FE704700000220EC5100085F
:10282800000000207404002074040020680A0020BE
:10283800FEE700002DE9F04F89B0D468D58C936984
:102848000794146B06930294D2F810A0D2F814B02F
:10285800D3699668546B0391002D66D004F0100577
:1028680004F020040495384905944FF0000E3546CD
:102878004FE0875D047800EB460004EB0724E6B2DE
:10288800C4F3072451F8266051F82440334404EB7C
:102898009324C4F30906C3F3090346EA0346A30ACB
:1028A8002A4C26FB04542A4D26FB05F5A4F50064A2
:1028B80004EB0A08A8EB0B084646F717CDE90067B2
:1028C800049E0EF1010C6EB1166A019FA8FB0689E1
:1028D80006FB079918F1004849F100094FEA490A2F
:1028E800A3465446168D029F24044FF000484FF02B
:1028F80000090EFB06FEC7FB0489039E4F46BC1069
:1029080004F30F0426F81E40D48C1FFA8CFE74457D
:102918000AD9548D012CE6B2ABD1059E50F8024B72
:10292800002EACD064BAAAE72E460799D361069B5D
:1029380096600020D160C2F810A0C2F814B093616C
:1029480009B0BDE8F08F00BF0C00002001000300B3
:10295800030001002DE9F04FD68C9369156BD2F86E
:1029680010A0D2F814909468D2F80CB089B00793EC
:102978000395D369556B0491002E00F0968005F0FD
:10298800100605F020055449059606954FF0000EEF
:10299800CDF808906AE010F8165010F8078090F803
:1029A80000C02D0400EB460005EB0825AC44384474
:1029B8005FFA8CF6CCF3072551F8266051F825709C
:1029C8004FEA1C4C06EB932607EB962751F82C3060
:1029D800C7F30905C6F3090645EA064603EB97233C
:1029E8003E4D26FB05B73E4D26FB054BC3F30904B8
:1029F80004EB44080BEB480B012426FB04F6A7F56F
:102A0800D855029F0EEB040C08EB060405EB0A06EA
:102A1800F61B37464FEAE678CDE90078059F77B18F
:102A2800D2F820800295A6FB089A019E08FB06AA08
:102A380019F100464AF100074FEA470A5546168D34
:102A4800039FAD034FF000484FF000090EFB06FE50
:102A5800C7FB0589049E4F46BD1005F30F0526F8F0
:102A68001E50D58C1FFA8CFE75451CD9558DEFB2BA
:102A7800012D3EB28FD1069D5DB11EF0010F22D10E
:102A88000578C77846782D0205EB074CB444023028
:102A98008EE7467890F802C010F8035B360206EB22
:102AA8000C4CAC4484E7DDF80890D361079B946034
:102AB8000020C2F80CB0C2F810A0C2F814909361BC
:102AC80009B0BDE8F08FC578877810F8046B2D023F
:102AD80005EB074CB4446BE70C0000200100030031
:102AE800070006002DE9F04FD58C9369146BD2F8D6
:102AF80010A0D2F81490D669D2F80CB089B0079318
:102B080003949368546B0491002D00F09F8004F0A7
:102B1800100504F020040595534906944FF0000C65
:102B2800CDF808901D46174677E018F8033010F8DE
:102B38000E8010F802E000781B0403EB086303EB37
:102B48000E23034404EB4200DCB2C3F30722C3F3B1
:102B5800074851F8244051F822201B0E04EB962414
:102B680051F8286051F8233002EB942206EB922E9C
:102B780003EB9E26C6F30903C4F30904C2F3090252
:102B8800CEF3090E43EA0E4E42EA0442374B22FBCB
:102B980003B44FF480332EFB0348354B22FB035517
:102BA800344B2EFB035B012322FB03F2324B2EFB3B
:102BB8000325029BA8F5804404EB0A08A8EB030848
:102BC8004246D317CDE90023059B0CF1010E6BB1EA
:102BD8003A6A019B0294A8FB028902FB039918F147
:102BE800004849F100094FEA490A54463B8D049AC6
:102BF8000CFB03FC039B64034FF000484FF00009F3
:102C0800C3FB04894B469B1003F30F0322F81C30C7
:102C1800FB8C1FFA8EFC634514D97C8DE2B202EB63
:102C2800420E00EB0E085342012C08EB03047FF41C
:102C38007CAF021D0368069810B15BBA104683E7A3
:102C4800104681E7DDF808902B463A469360079BCB
:102C5800C2F80CB00020D661C2F810A0C2F81490D7
:102C6800936109B0BDE8F08F0C0000200300060056
:102C78000C000A000A000C00060003002DE9F04FC2
:102C880089B05369D468D58C029300949369146B06
:102C980007930394D2F810A0D6699368546B0491F3
:102CA800002D00F0C58004F0100504F020046749E9
:102CB800059506944FF0000C574601939CE01BF8CD
:102CC800054010F809B01AF8099010F80EA000781D
:102CD800240404EB0B6B18F805400BEB0A2BA844F3
:102CE80004EB09240BEB000508EB4E005FFA85F8AE
:102CF800C5F3072E51F828A051F82E90C5F3074EBA
:102D08002D0E0AEB962A51F82E8051F825E0E6B2EE
:102D180009EB9A25C4F3072408EB952851F8266097
:102D280051F824900EEB982406EB942E09EB9E267E
:102D3800C5F30905C4F30904C6F30909CAF3090A66
:102D4800C8F30908CEF3090E45EA0A4A44EA0848D6
:102D580049EA0E4E3E4C009D2AFB04543D4D28FB8B
:102D680005444FF480332EFB034B3B4C019B2AFB5D
:102D780004334FF01B1428FB0433384C2EFB043368
:102D8800012500932AFB05FA354B28FB03A8354B90
:102D98002EFB0383ABF558440193029B04EB070811
:102DA800A8EB0308059B65444FEAE87B63B1176A03
:102DB8000294A8FB078907FB0B9918F1004849F111
:102DC80000094FEA49073C46B2F828E0039BE402B1
:102DD8004FF000484FF000090CFB0EFCC3FB0489C0
:102DE800049B4FEAA90404F30F0423F81C40D48C75
:102DF8001FFA85FC644519D9548D5FFA84FE0EEBE1
:102E08004E09CEF1000500EB090B0BEB050A012C6E
:102E18000AEB09087FF453AF069B0568446806303F
:102E2800002B3FF463AF6DBA64BA5FE7019BBA4603
:102E38009360009BD360029B5361079BD66100207F
:102E4800C2F810A0936109B0BDE8F08F0C00002013
:102E58000A000F00030006001900150015001900EC
:102E6800060003000F000A002DE9F04F89B013692E
:102E78009568039301955369D568D48C049300959C
:102E88009369156B07930595D3690691002C00F09B
:102E9800D980116A0291DFF8ECE14FF0000C81460D
:102EA800C1E006EB4608744209EB080707EB440A41
:102EB8000AEB4805385D295D1AF818B019F808A01A
:102EC80017F8148099F8007015F81490254409042F
:102ED800000401EB0B6100EB0A6015F814B001EB7C
:102EE800092105EB440400EB0820594404EB86094A
:102EF8003844C5B2C0F307245EF825605EF8245054
:102F0800C0F30744000E03EB06085EF824705EF871
:102F18002040C1F30723C8B205EB982507EB952796
:102F28005EF820605EF82300C1F3074304EB9724A2
:102F3800090E06EB94265EF823305EF8211000EBAC
:102F4800962003EB902A01EB9A21CAF30903C5F3F3
:102F58000905C4F30904C6F30906C1F3090AC8F34D
:102F68000908C7F30907C0F3090044EA07474AEA12
:102F7800034A45EA08488B0A40EA06403949009C5A
:102F880028FB0141384C27FB0411384C20FB041165
:102F98004FF480362AFB0611354C019D28FB04545A
:102FA800334D2AFB1544334D27FB054420FB1544BC
:102FB8000125009428FB05F82F4C27FB04872F4C8C
:102FC80020FB04702E4C2AFB0400A1F50036029960
:102FD800019089B10398049C04963044001BC517DE
:102FE8000F46A0FB010107FB051110F1004041F15C
:102FF8000001490003910E46148D05990698B60202
:103008004FF000474FF000080CFB04F4C1FB0678B2
:103018004146891001F30F0120F81410D18C0CF1EE
:10302800010C61450EDD568D012E7FF43AAF566BCB
:10303800B40699E8030009F108097FF55AAF40BAC8
:1030480049BA56E7D361039B01991361049B9160C8
:1030580053610099079BD1600020936109B0BDE8D6
:10306800F08F00BF15001C000A000F0003000600C7
:103078002A00240030002E00060003000F000A007A
:103088001C0015000C0000202DE9F04F8BB01469CE
:103098000494546905949469099494680294D38CAF
:1030A800D4680194146BD2F81CB006940791002BD5
:1030B80000F00F81136A089300230092DFF86492EE
:1030C800CDF80CB01A46EDE05FFA8CFC0FFA8CF4E0
:1030D800660006EB0408CCF1000500EB080104EBE0
:1030E80084044B19495D10F808A013F804B010F8CF
:1030F8000CC090F8008003EB040E0EEB05070904E2
:103108001EF805301EF815E001EB0A6107EB450AC9
:103118000AEB04001B041AF804A017F81570445DA4
:1031280003EB0B6301EB0C21284403EB0E23414412
:10313800304404EB0A241F44CDB2C1F3072359F8E5
:10314800256059F823E0039BC1F30745090E334472
:1031580059F8258059F82160FDB20EEB93219B4662
:10316800C7F3072308EB912859F825C059F82350CD
:10317800C7F3074E06EB98263B0E0CEB962C59F836
:103188002E7059F823305FFA84FE05EB9C25C4F3B2
:10319800072407EB952759F82EE059F8244003EB4C
:1031A80097230EEB932E04EB9E24C1F30901C3F37E
:1031B8000903CBF3090BC7F30907C6F30906C5F3DF
:1031C800090541EA0B4B43EA0747C4F30901A30A7F
:1031D800C8F30908CCF3090CCEF3090E41EA0E4EE8
:1031E800039346EA084845EA0C4C424B01992BFBED
:1031F8000313414928FB013340492CFB0133404963
:1032080027FB01334FF480312EFB01333D49029CEB
:103218002BFB01443C4928FB01444FF04B112CFB8C
:1032280001413A4C27FB0411394C2EFB0411019142
:1032380001212BFB01FB374928FB01B8364D2CFB3C
:10324800058C364D27FB05C7354D2EFB05710291C0
:103258000899A3F57A3381B1049C059D05931C4414
:10326800641BE717A4FB014501FB075514F1004453
:1032780045F10005690004910B46009E069F318DBB
:103288005B024FF00044002502FB01F1C7FB034538
:10329800079CAB1003F30F0324F81130F38C0132B1
:1032A800934213DD009BB3F82AC0BCF1010F7FF4F1
:1032B8000BAF5B6B84689B0690E8820000F10A0004
:1032C8007FF53AAF49BA7FBA64BA35E7DDF80CB092
:1032D8003246029B9360019BD360049B1361059B5C
:1032E8005361099BC2F81CB0002093610BB0BDE884
:1032F800F08F00BF24002D0015001C000A000F00ED
:10330800030006003F00370049004500450049001A
:1033180037003F00060003000F000A001C001500DC
:103328002D0024000C0000202DE9F04F93B0D38C21
:1033380005901046019212690C92024640690D9060
:103348001046144692691192C2690292E268806836
:103358000392226B04900E920F91002B00F09B8138
:10336800236A10930023DFF8A89306937AE1D2B278
:10337800059D14B204EB440A504205EB0A014FEADA
:10338800840B01EB00080BEB040C08EB0C073B1853
:10339800C4EBC40403EB400E0EEB0406079333188A
:1033A80005932B4615F80AA0CDF820A018F80CA014
:1033B80013F802C01EF804803A5C17F810E01F7872
:1033C800079B059D13F81030095C0997079316F8B9
:1033D8001070335C120405EB400602EB0A62089D8C
:1033E80006EB040A090401EB05611AF80050365D82
:1033F800059C2D0405EB066601EB0C211AF810500C
:1034080014F810400AEB000C1B0403EB086306EBEE
:1034180005261CF810A0079D03EB07230CEB4000C2
:10342800099F584402EB0E22059039442A44B244BD
:103438001819CBB2C1F30724029E59F8233059F862
:103448002450C1F307441E44090E334659F824603A
:1034580059F82170D4B205EB9325C2F3072106EB86
:10346800952B59F8246059F82110C2F30744120E1D
:1034780007EB9B2706EB972859F8246059F8224058
:103488000297C2B201EB982106EB912C59F8226001
:1034980004EB9C24C0F3072206EB942EC0F30746E6
:1034A80059F8222059F82670000E5FFA8AF6C3F3FD
:1034B8000903099359F8200059F8266002EB9E2267
:1034C800CAF30723C5F309050A9507EB9227CAF340
:1034D800074500EB972059F8233059F82550C2F3D7
:1034E80009020B9206EB90260A9A03EB9623CCF37B
:1034F800090C079305EB93254FEA1A6A029BCDF84E
:1035080008C09446099A59F82AA04CEA024C029A33
:10351800C4F309040AEB952A44EA02440B9ACDF84D
:1035280020A0C8F30908C3F3090ACEF3090E079BC4
:10353800C1F3090141EA084142EA0E48089AC6F374
:103548000906C3F30903CBF3090BC7F30907C2F351
:10355800090E43EA0643C0F30900960AC5F30905B4
:10356800029640EA07404AEA0B4A4EEA0545534E9E
:10357800039F2CFB0676524F2AFB0766514F21FB0F
:103588000766514F24FB0766504F28FB0766504FCC
:1035980020FB07664F4F23FB07664FF4803725FB58
:1035A80007664D4F049A2CFB072E4C4A2AFB02EE65
:1035B8004B4F21FB07EE4B4F24FB07EE4A4F28FBEE
:1035C80007EE4A4F20FB07EE494F23FB07E7DFF8DA
:1035D80044E125FB0E724FF0010B03922CFB0BFB11
:1035E800444F2AFB07BA444F21FB07AA434F24FB49
:1035F80007AA434F28FB07A7424A20FB0277424A03
:1036080023FB0277414B25FB0373109D0493A6F51A
:10361800801685B10C9A0D990D963244521AD1171D
:10362800A2FB052305FB013312F1004243F100031D
:103638005B000C931E460198069C018D0E9DF601B9
:103648004FF000420023C5FB062304FB01F10F9A4B
:103658009B1003F30F0322F81130C38C621C9342B2
:10366800069218DD019B5A8D012A7FF480AE5B6BB0
:10367800059D9B0629686A68A868D5F80CA005F11D
:10368800100406D549BA52BA40BA9AFA9AFA059479
:10369800CFE60594CDE6019A049991600399D1602B
:1036A800029BD361114613460C9A0A610D99596120
:1036B80011999961002013B0BDE8F08F6900780076
:1036C8004E005B003700420024002D0015001C004E
:1036D8000A000F000300060096008800AC00A20054
:1036E800BA00B400C000BE00BE00C000B400BA00FA
:1036F800A200AC00060003000F000A001C00150021
:103708002D002400420037005B004E00780069005D
:103718000C000020880096002DE9F04F914683B0F8
:10372800D28CD9F81830D9F80C4000938046D9F8D3
:103738001470D9F81000D9F81C30D9F80850019441
:10374800D9F830A0D9F820E0002A4ED0DFF8A8C078
:103758008C1E08EB420B58F8022B52BAD6B2C2F3B1
:1037680007215CF826205CF82110134401EB932212
:10377800C2F30901C3F3090341EA0341930A1C4A4E
:1037880021FB02521B4D21FB05F5A2F500621044F6
:10379800C01BC717A0FB0E0110F100400EFB07115C
:1037A80041F1000148044FF000460027C0FB0A67BA
:1037B800D8454FEA41004FEAA701174601F30F0128
:1037C80024F8021FC7D10199C9F81C30009BC9F819
:1037D80010000020C9F80850C9F80C10C9F81420C6
:1037E800C9F8183003B0BDE8F08F3A462146EBE738
:1037F80001000300030001000C0000202DE9F04F38
:1038080089B0D38C96690493176B0792156954692C
:1038180006969368D669D2F80CC0D2F820A0049A0C
:103828000597002A7ED0A1F1020B0027A846CDF803
:1038380004B05546E346DFF8F8E0BA469C4655E042
:103848000278C3784178120202EB03430B4402303A
:10385800D9B2C3F307225EF821705EF822201B0C50
:1038680007EB962702EB97225EF82360C7F309035C
:10387800C2F3090706EB922647EA03432A4A23FBC9
:1038880002B12A4A23FB02CBC6F3090C0CEB4C0C01
:103898000BEB4C0B012223FB02F7A1F5D85101EBEE
:1038A8000802121BD417A2FB052312F1004205FBE4
:1038B800043343F10003059CDA034FF000484FF04E
:1038C8000009C4FB0289CDE90289019A4FEA43083D
:1038D800039B9B1003F30F0322F8023F049B019202
:1038E8000AF1010A9A45BC440C460BD01AF0010FA4
:1038F800A6D0C278837810F8041B120202EB0343A7
:103908000B44A5E763464546DC460798416106999E
:103918008360C0F80CC0C66105618161002009B0F0
:10392800BDE8F08F2146F0E701000300070006001C
:103938000C0000202DE9F04F924687B0D28CDAF8BF
:103948001830DAF830500493DAF81040DAF81480B6
:10395800DAF81C60DAF80830DAF80CE00195DAF8E1
:1039680020C0002A7BD001EB42023E4FCDF80CC0AC
:1039780002920D46A1468446CDF814A05CF8041BBB
:1039880049BAC8B2C1F30722C1F3074A57F8200061
:1039980057F82220090E00EB962057F82A6057F8AE
:1039A800211002EB902206EB922A01EB9A26C2F331
:1039B8000902C6F30901C0F30900CAF3090A42EA79
:1039C800004041EA0A4A284A20FB02E24FF48031CB
:1039D8002AFB0121254A20FB0233254A2AFB023E05
:1039E800012320FB03F0234B2AFB0303A1F58042AC
:1039F800039C02EB0900A0EB08004FEAE07BA0FB68
:103A0800040110F1004004FB0B1141F10001019C7D
:103A180088034FF000484FF00009C0FB04894FEAC3
:103A2800A9004FEA410900F30F00029925F8020B9B
:103A38008D429046A2D1DDF814A04C46CAF8083051
:103A4800049BCAF80CE00020CAF81C60CAF81040B1
:103A5800CAF81420CAF8183007B0BDE8F08F4246FB
:103A6800ECE700BF0C000020030006000C000A0071
:103A78000A000C00060003002DE9F04F13461C460F
:103A880087B0254626462D6B0592D28CD3F8149024
:103A980001958046356A18699B690493D4F81CE03F
:103AA800A3680295E468002A00F08C8001EB4202CA
:103AB800454D03928C4698E8440008F1060852BA2E
:103AC80076BAD7B2C2F3072155F827A055F82110C6
:103AD800C2F30747120E0AEB9E2A55F8277055F8CD
:103AE80022205FFA86FB01EB9A21C6F3072E07EB2B
:103AF800912755F82B6055F82EE002EB972206EB3C
:103B080092260EEB962EC1F30901C2F30902CEF3F9
:103B1800090BCAF3090AC7F30907C6F3090642EAFB
:103B2800074741EA0A4A4BEA0646284A2AFB024264
:103B3800274927FB01224FF4803126FB0122254922
:103B48002AFB01344FF01B1327FB0344224B26FBAF
:103B5800034401212AFB01FA204B27FB03A7204B32
:103B680026FB0373A2F55842029E019F1044A0EB66
:103B780009004FEAE07AA0FB060110F1004006FBBD
:103B88000A1141F1000108034FF000494FF0000A03
:103B9800C0FB079A5746B81000F30F002CF8020B29
:103BA800480003998C45914685D1059D6A61049A20
:103BB80028610020AB60EC60C5F81CE0AA6107B082
:103BC800BDE8F08F4A46F0E70C0000200A000F001D
:103BD800030006001900150015001900060003006F
:103BE8000F000A002DE9F04F89B014460792D38CD4
:103BF800D2F810C0D2F8148092690692E268019255
:103C0800226B0392226AE569A6680492002B00F0F1
:103C1800B08001EB4303584F0593029150F8082BED
:103C280050F8043C52BA93FA93F9D4B2C2F307237A
:103C380057F824B057F823300199C2F30744120EFD
:103C4800AB4457F8245057F822405FFA89F203EB47
:103C58009B2EC9F3072305EB9E2A57F8222057F815
:103C68002330C9F3074504EB9A244FEA196902EB9C
:103C7800942257F8255057F8299003EB922305EB27
:103C8800932509EB9529CEF3090ECBF3090BCAF35B
:103C9800090AC3F30903C5F309054EEA0B4BC4F33C
:103CA8000904C9F3090EC2F3090243EA02424EEAC3
:103CB800054E44EA0A444FEA9925304B2BFB03137F
:103CC8002F4924FB01332F4922FB01334FF4803A5B
:103CD8002EFB0A392C4B2BFB03662EFB13662B4B52
:103CE80024FB036622FB13634FF0010A01932BFBAD
:103CF8000AFB274B24FB03BA264B22FB03A2264BC5
:103D08002EFB0326A9F5003A0AEB0C02049C039942
:103D1800A2EB08024FEAE279A2FB042312F1004267
:103D280004FB093343F10003DA024FF000484FF077
:103D38000009C1FB028902994FEAA9024FEA430C24
:103D480002F30F02059B21F8022B99420291D046FB
:103D58007FF464AF079A0199D160069996600020B4
:103D6800D561C2F810C0C2F814A0916109B0BDE8CD
:103D7800F08FC2462246EEE70C00002015001C001A
:103D88000A000F00030006002A00240030002E005D
:103D9800060003000F000A001C0015002DE9F04F73
:103DA800134689B086461869009018461C465B6918
:103DB800029383690693D0F808C0C369C068079264
:103DC8000190D28C206B0390206A0490002A00F0A6
:103DD800D28001EB4202694805921C46DEF8005089
:103DE800DEF80420DEF808300EF10A0E6DBA52BA79
:103DF80093FA93FBEEB2C5F3072350F8267050F8F8
:103E08002330C5F3074604EB070A2D0E50F8264069
:103E180050F8256003EB9A2304EB9329D5B2C2F33B
:103E2800072450F8257050F82450C2F3074406EBD5
:103E38009926120E07EB962850F8247050F8222085
:103E48005FFA8BF405EB9825CBF3072B07EB952747
:103E580050F8244050F82BB002EB972204EB922440
:103E68000BEB942BC6F30906C9F30909CAF3090A2F
:103E7800C5F30905C7F30907C4F3090446EA094964
:103E8800C3F30903CBF30906C8F30908C2F309020F
:103E980045EA084842EA074246EA044643EA0A4332
:103EA8004FEA9B24364D019F23FB0575354F29FBAF
:103EB8000755354F28FB0755344F22FB07554FF45C
:103EC800803A26FB0A5B324D23FB05CC314D29FB9A
:103ED80005CC4FF04B1528FB05C52F4F22FB075586
:103EE8002E4F26FB07554FF0010A019523FB0AFACE
:103EF8002B4B29FB03A92B4D28FB05982A4D22FBA8
:103F080005822A4B26FB032C009B049DABF57A3ACD
:103F180053441A46029BCDF808A0D21AD717A2FB21
:103F2800052305FB073312F1004243F10003039D0B
:103F38009A024FF0004600275B00C5FB0267BA10E3
:103F4800009302F30F02059B21F8022B99427FF49C
:103F580045AF234607990198C860009AC1F808C080
:103F68000846CB610A61C1F814A006998161002056
:103F780009B0BDE8F08FDDF808A0EBE70C000020E1
:103F880024002D0015001C000A000F000300060085
:103F98003F003700490045004500490037003F0011
:103FA800060003000F000A001C0015002D00240065
:103FB8002DE9F04F93B014461192D38C12690392F5
:103FC8002246154664690694144692691092EA6876
:103FD80004922A6BE6690D92A4682A6A05940E92E7
:103FE800002B00F0458101EB43030F93DFF8DC82DF
:103FF800079100F110039946A9F110010EC959F86B
:10400800040C49BA52BA5BBA90FA90FAC1F3072085
:10401800CCB258F8205058F82440C1F30740090E94
:10402800264458F8204058F82170D0B205EB962560
:1040380004EB952BC2F3072158F8204058F82110BB
:1040480007EB9B27C2F30740120E04EB9724019756
:1040580058F82000274658F822400297DAB201EBB8
:10406800972100EB912C58F8220004EB9C2400EBDC
:10407800942EC3F30722C3F307401B0E58F8207091
:1040880058F8222058F823005FFA8AF3C6F3090685
:104098000A9602EB9E2258F82360C5F30905CAF375
:1040A80007230B9507EB9227CAF3074500EB9720E8
:1040B80058F8233058F825504FEA1A6A06EB90262C
:1040C80003EB962358F82AA0089305EB9325019B48
:1040D8000AEB952ACDF824A0C3F3090A029BC3F37F
:1040E80009030293089BC3F3090308930B9BC5F3C9
:1040F80009050C951D460A9BCEF3090EC2F3090269
:1041080045EA034342EA0E420193029B0292099A4E
:104118000C9DC7F30907C0F3090040EA0740C1F343
:104128000901C2F3090741EA034147EA0545089B2B
:10413800019FCBF3090BCCF3090CC6F30906C4F3B2
:10414800090443EA0643BE46960A4AEA0B4A44EA89
:104158000C44494F049A2EFB072E484A2AFB02EECC
:10416800474A21FB02EE474A24FB02EE464A029FD9
:1041780027FB02EE454A20FB02EE454A23FB02E7F5
:104188004FF4803E25FB0E7E019F424ABC46059FA8
:104198002CFB027C404A2AFB02CC404F21FB07CC77
:1041A8003F4F24FB07CC3F4F029A22FB07CC3E4FE0
:1041B80020FB07CC3D4F23FB07C7DFF814C125FBC5
:1041C8000C724FF0010B0492019F27FB0BFB384F39
:1041D8002AFB07BA374F21FB07AA374F24FB07AA48
:1041E800364F029A22FB07A7354A20FB0277354A49
:1041F80023FB0277344B25FB03730593039B0E9C2B
:10420800AEF5801E73441A46069BCDF818E0D21A04
:10421800D117A2FB042304FB013312F1004243F13E
:1042280000030D9C1A024FF000400021C4FB02015C
:104238008A10079902F30F025B0021F8022B0393FF
:104248000F9B0791994209F110097FF4D5AE119A95
:10425800059991600499D1601346D6611099039A23
:104268001A610020C3F814E0996113B0BDE8F08F1B
:10427800DDF818E0EBE700BF690078004E005B004E
:104288003700420024002D0015001C000A000F0012
:104298000300060096008800AC00A200BA00B40033
:1042A800C000BE00BE00C000B400BA00A200AC004E
:1042B800060003000F000A001C0015002D00240052
:1042C800420037005B004E00780069000C000020B7
:1042D80088009600F8B54022044600210C3000F012
:1042E800F9F93B493B4800F08DF922886389384940
:1042F8002589A38601284FF0000318BF0021012A51
:104308006164E586A36123616361E3606362E361DD
:104318002362236418D9032002236288012A1DD945
:1043280040210023626BB2F1011F626804BF21645F
:104338000B461AB143F010032364E262002222877D
:1043480008B980332364F8BD234D10D02A78012A98
:1043580027D06288012A4FF00100E1D801D0184621
:10436800DEE720221846226413466021DAE729781E
:104378000029EED11949DFF86CE0194F01F5806684
:104388004A680EEA025302EA07000343C2F30952DD
:10439800134441F8043F8E42F2D1012028700023D3
:1043A800BBE70E49DFF83CE00D4F01F580664A682F
:1043B8000EEA025302EA07000343C2F30952134408
:1043C80041F8043F8E42F2D100232B70C1E700BFB1
:1043D800CDB5E8B5C2A507F4950400200800002073
:1043E80000FC0F000000F03F664B426C9A4201D07F
:1043F8000420704730B50A88036C2DED048B044601
:104408000D46511E23F48070062983B020641AD902
:104418000820B4F93810B5F9043099427ED013F168
:104428000C0F2ADA4FF6F4734030AB8022866B8883
:10443800638620B9236C43F480732364002003B09F
:10444800BDEC048B30BD218E91426CD023F4877370
:1044580023F00103134303F070012364702903F070
:104468000F0303F1FF3366D0062B00F28980DFE8E3
:1044780003F0524F4C49433D4600332B32DC226C4B
:1044880002F00F02013A062A72D83F4901EB820274
:1044980092ED009A92ED078A019007EE903AF8EEB5
:1044A800E77AF3EE040AC7EEA00AB2EE040A00F0B7
:1044B8003FF9DFED360AF0EE408A70EEC90AB0EE39
:1044C800000A00F035F928EE288A28EE000A00F0E4
:1044D80009F9BCEEC00AAB882A88019884ED0F0A56
:1044E8002387A3E733234030AB809FE7284BA3649F
:1044F800B5F90430002092E7264BA364F8E7264B71
:10450800A364F5E7254BA364F2E7254BA364EFE723
:10451800244BA364ECE7244BA364E9E7218E914282
:104528007FF47DAF83E7B5F90430B4F938109942C8
:1045380023D0002073E7062B22D8DFE803F01613F8
:10454800100D0A070400194BA364D1E7184BA364A4
:10455800CEE7184BA364CBE7174BA364C8E7174B08
:10456800A364C5E7164BA364C2E7164BA364BFE771
:104578009FED158AB0EE489A8EE76B88638659E7F7
:10458800002046E7CDB5E8B57C51000800000042A0
:104598005D2900083D280008ED2A0008313300088D
:1045A80091300008712E0008852C00083D3900085C
:1045B8000538000821370008B93F0008A53D000864
:1045C800ED3B0008813A00080000000010B40C4BD5
:1045D800546C9C4203D004205DF8044B7047136C64
:1045E800DC0507D413F0800F14BF202030205DF8BD
:1045F800044B7047936C5DF8044B0C32184700BFAE
:10460800CDB5E8B5174A136810B423F00103164C6A
:104618001360236833B9154B1B68C3F30B03B3F559
:104628008A6F0FD0124A012313601368002BFCD144
:10463800104B5DF8044B18601868081AB0FA80F03F
:10464800400970470C4A012313601368002BFCD102
:104658000A4B5DF8044B18601868401AB0FA80F0ED
:1046680040097047002000E0002004E00010005CD2
:104678000830024000300240084C0258004C0258F2
:10468800014B1868704700BF0C04002070B50D4E30
:104698000D4CA41BA4100025A54209D10B4E0C4CAF
:1046A80000F04CFDA41BA4100025A54205D170BD47
:1046B80056F8253098470135EEE756F825309847E3
:1046C8000135F2E7E4510008E4510008E45100081C
:1046D800E851000802440346934200D1704703F8AA
:1046E800011BF9E710EE100AC0F3C753A3F17F02CC
:1046F800162A15DC002A08DA013200F0004301D13D
:1047080043F07E5300EE103A7047084911410842C1
:10471800FAD04FF480031341034423EA0103F1E77D
:10472800802AF1D130EE000A704700BFFFFF7F00FA
:104738002DE970432DED048BA74C8AB0F0EE408A2A
:10474800B0EE608A00F058F994F900506B1CB0EE96
:10475800409A26465FD0B4EE488AF1EE10FA5AD64F
:10476800F4EE688AF1EE10FA21D7B5EE408AF1EE40
:1047780010FA50D101230093984B019318EE900A38
:1047880000230893FBF780FECDE9020118EE100A1A
:10479800FBF77AFE924B0022022DCDE90401CDE908
:1047A800062332D0684600F0EAFB40BB65E0DFED47
:1047B8008D9AF4EE698AF1EE10FA63D1B4EE698A43
:1047C800F1EE10FA2ED101230093844B019318EED9
:1047D800900A00230893FBF757FECDE9020118EE73
:1047E800100AFBF751FE00220023CDE90401CDE9B0
:1047F8000623002DD6D07A4B0022CDE90623089B4C
:104808001BB1FFF73DFF089B0360DDE90601FBF7DD
:1048180093FE09EE100AB0EE490A0AB0BDEC048B0B
:10482800BDE87083B0EE480A00F0B2FB0028F2D071
:10483800B5EEC08AF1EE10FAEDD501230093674B6F
:10484800019318EE900A00230893FBF71DFECDE9AB
:10485800020118EE100AFBF717FE94F90030CDE9B3
:10486800040123B900220023CDE906239AE75E4913
:104878000020CDE90601022B94D1FFF701FF212387
:104888000360BCE700F084FB0546002873D1B0EE56
:10489800680A00F07DFB00286DD0B0EE480A00F0F1
:1048A80077FB002867D018EE900AFBF7EDFD8046ED
:1048B80018EE100A8946FBF7E7FDB4EE499AF1EEC7
:1048C80010FA94F90040454B13D70122CDE9002393
:1048D8000895CDE90289CDE90401002CC2D0C9EEC2
:1048E800A97A17EE900AFBF7CFFD022CCDE9060155
:1048F800C2E70322F6EE007ACDE900230895CDE958
:104908000289CDE9040128EE278AFCB9374BF5EE78
:10491800C08A4FF06042F1EE10FACDE9062353D574
:10492800B0EE480A00F044FBB4EE480AF1EE10FA83
:1049380004D02F4B4FF06042CDE9062396F90030A2
:10494800022B41D1FFF79CFE222399E7294BF5EE74
:10495800C08A0022F1EE10FACDE90623EED5B0EEBA
:10496800480A00F025FBB4EE480AF1EE10FAE5D04B
:1049780000221D4BE0E7B5EE409AF1EE10FA7FF405
:104988004AAFB0EE680A00F003FB00283FF443AFDB
:10499800B0EE480A00F0FCFA00283FF43CAF0423CC
:1049A80000930E4B019318EE900A00230893FBF72F
:1049B8006BFDCDE9020118EE100AFBF765FD002238
:1049C800CDE904010023B7E7684600F0D8FA0028CB
:1049D8007FF415AFB6E700BF70040020B45100089B
:1049E8000000F03F000000000000F0FFFFFFEF476D
:1049F800FFFFEFC70000F07F2DE9F04110EE905A5D
:104A080035F000472DED028BB0EE408AF0EE608A5B
:104A180000F0938210EE108A28F00044B4F1FF4FA2
:104A280006DCB7F1FF4F0ADDB4F17E5F00F0858246
:104A3800BDEC028BD948BDE8F04100F0B3BAB8F13B
:104A4800000F1DDAB7F1974F2CDAB7F17E5F30DB34
:104A5800FB15C3F1960347FA03F606FA03F3BB42C4
:104A680027D106F00106C6F10206B7F17E5F22D112
:104A7800002D80F26882F7EE007A87EE880A0DE052
:104A88000026B7F1FF4FF0D1B4F17E5F00F05582F8
:104A98000ADD002D80F254829FEDC10ABDEC028B25
:104AA800BDE8F0810226ECE7002DF5DAB1EE680AE0
:104AB800F4E70026D9E7B5F1804F02D128EE080ABD
:104AC800ECE7B5F17C5FB0EE480A08D1B8F1000F09
:104AD80005DBBDEC028BBDE8F04100F04DBA00F0FB
:104AE80050FA24B128F04043B3F17E5F17D1002D6E
:104AF800BCBFF7EE007A87EE800AB8F1000FCDDA76
:104B0800A4F17E5454EA060304D170EE407A87EE8D
:104B1800A70AC3E7012EC1D1B1EE400ABEE74FEAAA
:104B2800D870013856EA000304D138EE488A88EE76
:104B3800080AB3E7B7F19A4F6DDD9A4B9C4206DC41
:104B4800002DA9DA9FED980A20EE000AA6E7974BF8
:104B58009C4202DD002DF5DC9EE7F7EE007A30EE90
:104B6800670A9FED937AF1EE406AF5EE007AA6EEB9
:104B7800A77AF6EE007AE7EE407A60EE000A9FED3B
:104B88008D7A67EEA00ADFED8C7A67EEE07AE0EEC8
:104B9800077A9FED8A7AB0EE676AA0EE076A16EE8A
:104BA800103A23F47F6323F00F0300EE903AE6EE09
:104BB800870A77EEE07A25F47F6525F00F0507EE82
:104BC800105A67EEA80A38EEC77A07EE903AE7EE71
:104BD800270A013E56EA000207EE105A67EE877A66
:104BE800B7EE008A30EEA77ABFEE000A17EE104A39
:104BF80008BFB0EE408A002C24F0004340F38481C3
:104C0800B3F1864F40F3FC80DFED677A28EE270A80
:104C180020EE270A42E7B4F5000FBFBFDFED687A40
:104C280060EE277A6FF0170217EE904A4FEAE453C6
:104C3800A8BF00227F3B1344624AC4F3160494427F
:104C480044F07E5106DD604A944240F3A58001336A
:104C5800A1F5000100245D4AA7003A4407EE901A26
:104C680092ED007A5A4A37EE276AB7EE005AC5EE37
:104C7800066A491041F0005101F5802101EB4451C9
:104C880077EEC75A06EE101A65EEA64A14EE90CAD9
:104C980002EA0C0C05EE10CAB1EE454AE4EE065ADB
:104CA80036EE476A9FED4B7A37EEC66A64EEA47A11
:104CB800E4EE065A67EEA73A25EEA66ADFED465AF5
:104CC800A7EEA57ADFED455AE7EE275A9FED387A29
:104CD800A5EEA77ADFED425AE7EE275A9FED417A13
:104CE80075EE246AA5EEA77A66EE866AF0EE085A93
:104CF800F0EE657AE3EE876AE5EE057A77EEA67A56
:104D080017EE901A114007EE901A37EEE57ADFEDAC
:104D1800365AA4EE057A36EEC77A27EE247AA7EE3D
:104D2800867AB0EE476AA5EE276A16EE101A114089
:104D380006EE901AE4EE276ADFED2C7A37EE667AF3
:104D480006EE101A27EE277ADFED297A2949A6EE12
:104D5800277A3944D1ED007A37EE277A07EE903A70
:104D6800F0EE470A244BE6EE250A3B4493ED005A41
:104D7800F8EEE76A70EE850A70EEA67A17EE903ABA
:104D8800134007EE903A77EEE67A77EEC57AE6EECC
:104D9800657A77EE677A0EE701245CE7B851000878
:104DA80000000000F7FF7F3FCAF249710700803F0B
:104DB800ABAAAA3E70A5EC363BAAB83F00AAB83FFA
:104DC8000000804B71C41C00D6B35D00BC510008C4
:104DD80000F0FFFF55326C3E42F1533E05A38B3E77
:104DE800B76DDB3E9A99193F0038763F4F38763FCA
:104DF800A0C39D36CC510008C45100083CAA3833E2
:104E080040F092805FED036A37EE677A70EEA66A2B
:104E1800F4EEC76AF1EE10FA3FF7F6AEDB15A3F130
:104E28007E004FF4000303412344C3F3C7524749AC
:104E38007F3A114123EA0101C3F3160007EE101A65
:104E480040F40000C2F117021041002C77EEC77A37
:104E5800B8BF404237EEA07ADFED3D6A17EE103A50
:104E680023F47F6323F00F0307EE103A77EE677A97
:104E780070EEE70ADFED377A67EE277AE0EEA67A7A
:104E8800DFED356AB0EE670AA7EE260AB0EE406A93
:104E9800A7EE666A20EE007A77EEC67ADFED2F6A13
:104EA8009FED2F6AA7EE266ADFED2E6AE6EE076A07
:104EB8009FED2D6AA6EE876ADFED2C6AE6EE076A9B
:104EC800B0EE406AA6EEC76AF0EE006AB0EE467A27
:104ED80077EE666A20EE066AE0EE277A86EE267A94
:104EE80077EE677A37EEC00AF7EE007A37EEC00A37
:104EF80010EE103A03EBC053B3F5000F1ADA00F0C6
:104F0800B1F820EE080AC9E5194A934202DDDFED3F
:104F1800197A7BE608D137EE677AB4EEE07AF1EEDB
:104F280010FAFFF67BAFF2E7B3F17C5F3FF776AF9D
:104F380000208FE700EE103AE3E7B7EE000AADE590
:104F4800B0EE680AAAE5B0EE480AA7E5FFFF7F00C1
:104F58001872313F8CBEBF350072313F4CBB3133C4
:104F68000EEADDB555B38A38610B36BBABAA2A3ECB
:104F7800000016436042A20DB1EEC00A704700203F
:104F8800704710EE103A23F0004300EE103A7047D5
:104F980010EE103A23F00040B0F1FF4FACBF0020F4
:104FA800012070479FED010A704700BF0000C07FD5
:104FB80013B510EE101A21F00043DC0D7F3C162CBF
:104FC80046DC2BB3002C10EE102A4FEAD17021DA00
:104FD800C1F316035B42214A5B0A090D03F48003FF
:104FE80009050B4302EB800207EE903AD2ED006A06
:104FF80036EEA77A8DED017ADDED017A77EEE67A65
:1050080017EE903A23F0004343EAC07300EE103ADB
:1050180002B010BD124B23411942F9D05B08194266
:1050280006D021EA03024FF4001343FA04F42243A2
:105038000A4B03EB800090ED007A07EE902A77EE9A
:10504800277ACDED017A9DED010A30EE470ADFE7B8
:10505800B3F1FF4FDCD330EE000AD9E7D451000892
:10506800FFFF7F0008B510EE102A32F000432DED47
:10507800028BF0EE400A04D0B3F1FF4F06D370EE76
:10508800000ABDEC028BB0EE600A08BDB3F5000F54
:105098001CD21F4BDFED1F7A984260EE270A10DB07
:1050A80010EE902AC2F3C753193B0344FE2B0FDDC1
:1050B8009FED198AB0EE480A00F034F860EE080A4D
:1050C800DFE7DFED167A60EEA70ADAE7DB0DECE73B
:1050D800002B06DD22F0FF4242EAC35300EE903A6D
:1050E800CFE713F1160F06DA4CF250339842DFDCA3
:1050F8009FED0A8ADEE7193322F0FF4242EAC353E2
:10510800DFED077A07EE103A67EE270AB9E700BF26
:10511800B03CFFFF0000004CCAF249716042A20D8A
:105128000000003310EE103A10EE902A23F00043EE
:1051380002F00042134300EE103A7047F8B500BF82
:10514800F8BC08BC9E467047F8B500BFF8BC08BC60
:045158009E467047B8
:10515C0000061016000610160000000000000000EB
:10516C000102030406070809000000000102030401
:10517C000000304100002041000010410000E040E0
:10518C0000008041000060410000504126B41740EF
:10519C000000803F6F12033F0000003E0000804281
:1051AC0026B4974100000041706F77660000000044
:1051BC000000803F0000C03F0000000000C0153F11
:1051CC0000000000DCCFD1350000004B000000CB0C
:0851DC0034B4FF7F0100000064
:0451E400AD01000811
:0451E8008901000831
:1051EC0001000000100000000024F400000000008A
:1051FC000090C00101A850010138110303B8F00060
:10520C000348B1020460410204F0010406C0A0008E
:10521C00065061020768F10107F8B10309789101A2
:10522C00090852030A20E2020AB0A2040AC0600074
:10523C000A5021020B68B1010BF871030D78510172
:10524C000D0812030E20A2020EB0620410800101A0
:10525C001010C2021128520211B812041338F201B4
:10526C0013C8B20314E04203147003050FB83000E6
:10527C000F48F1011060810110F0410312702101FF
:10528C001200E2021318720213A832041578D1002E
:10529C00150892021620220216B0E2031830C20141
:1052AC0018C0820319D812031968D3041978910015
:1052BC00190852021A20E2011AB0A2031C30820112
:1052CC001CC042031DD8D2021D6893041F38320142
:1052DC001FC8F20220E082022070430422F0220256
:1052EC002280E303239873032328340515A81000A8
:1052FC001538D1011650610116E021031860010127
:10530C0018F0C10219085202199812041B68B10056
:10531C001BF871021C1002021CA0C2031E20A20169
:10532C001EB062031FC8F2021F58B3041F6871003D
:10533C001FF831022010C20120A08203222062013A
:10534C0022B0220323C8B202235873042528120169
:10535C0025B8D20226D062022660230428E002027D
:10536C002870C303298853032918140524604100AD
:10537C0024F00102250892012598520327183201C6
:10538C0027A8F20228C08202285043042A20E200F7
:10539C002AB0A2022BC832022B58F3032DD8D2010B
:1053AC002D6893032E8023032E10E4042E20A200DC
:1053BC002EB062022FC8F2012F58B30331D89201DC
:1053CC00316853033280E3023210A40434E042010A
:1053DC00347003033588930235185404379833021C
:1053EC003728F4033840840338D044051C9000005F
:1053FC001C20C1011D3851011DC811031F48F100AB
:10540C001FD8B10220F04102208002042250A100DA
:10541C0022E0610223F8F1012388B20325089201EE
:10542C002598520326B0E2022640A30426506100C0
:10543C0026E0210227F8B1012788720329085201BE
:10544C00299812032AB0A2022A4063042C100201EC
:10545C002CA0C2022DB852022D4813042FC8F20101
:10546C002F58B30330704303300004052B48310030
:10547C002BD8F1012CF081012C8042032E0022014B
:10548C002E90E2022FA872022F3833043108D2007A
:10549C003198920232B022023240E30334C0C2018E
:1054AC00345083033568130335F8D3043508920060
:1054BC003598520236B0E2013640A30338C082015F
:1054CC00385043033968D30239F893043BC832018E
:1054DC003B58F3023C7083023C0044043E802302A0
:1054EC003E10E4033F2874033FB8340531381100F3
:1054FC0031C8D10132E061013270220334F0010174
:10550C003480C202359852023528130437F8B100A2
:10551C003788720238A002023830C3033AB0A201B5
:10552C003A4063033B58F3023BE8B3043BF8710089
:10553C003B8832023CA0C2013C3083033EB0620186
:10554C003E4023033F58B3023FE8730441B81201B5
:10555C004148D3024260630242F0230444700302C8
:10556C004400C4034518540345A8140540F04100F9
:10557C0040800202419892014128530343A8320112
:10558C004338F3024450830244E0430446B0E20043
:10559C004640A3024758330247E8F3034968D30156
:1055AC0049F893034A1024034AA0E4044AB0A20029
:1055BC004A4063024B58F3014BE8B3034D68930127
:1055CC004DF853034E10E4024EA0A4045070430156
:1055DC00500004035118940251A854045328340267
:1055EC0053B8F40354D084035460450510040020D0
:1055FC00000000000000000000000000000000009F
:10560C00000000000000000000000000000000008E
:10561C00000000000000000000000000000000007E
:10562C00000000000000000000000000000000006E
:10563C00000000000000000000000000000000005E
:10564C00000000000000000000000000000000004E
:04565C000100000049
:04000005080027E9DF
:00000001FF
